{
  "_format": "hh-sol-artifact-1",
  "contractName": "BonusClaim",
  "sourceName": "contracts/BonusClaim.sol",
  "abi": [
    {
      "inputs": [
        {
          "internalType": "address",
          "name": "_usdcToken",
          "type": "address"
        },
        {
          "internalType": "address",
          "name": "_permit2",
          "type": "address"
        },
        {
          "internalType": "address",
          "name": "_owner",
          "type": "address"
        }
      ],
      "stateMutability": "nonpayable",
      "type": "constructor"
    },
    {
      "inputs": [],
      "name": "BasicBonusAlreadyClaimed",
      "type": "error"
    },
    {
      "inputs": [],
      "name": "InvalidPermit2Address",
      "type": "error"
    },
    {
      "inputs": [],
      "name": "InvalidUSDCAddress",
      "type": "error"
    },
    {
      "inputs": [
        {
          "internalType": "address",
          "name": "owner",
          "type": "address"
        }
      ],
      "name": "OwnableInvalidOwner",
      "type": "error"
    },
    {
      "inputs": [
        {
          "internalType": "address",
          "name": "account",
          "type": "address"
        }
      ],
      "name": "OwnableUnauthorizedAccount",
      "type": "error"
    },
    {
      "inputs": [],
      "name": "PermitBonusAlreadyClaimed",
      "type": "error"
    },
    {
      "inputs": [],
      "name": "USDCTransferFailed",
      "type": "error"
    },
    {
      "anonymous": false,
      "inputs": [
        {
          "indexed": true,
          "internalType": "address",
          "name": "user",
          "type": "address"
        }
      ],
      "name": "BonusClaimed",
      "type": "event"
    },
    {
      "anonymous": false,
      "inputs": [
        {
          "indexed": true,
          "internalType": "address",
          "name": "user",
          "type": "address"
        },
        {
          "indexed": false,
          "internalType": "uint256",
          "name": "usdcAmount",
          "type": "uint256"
        }
      ],
      "name": "BonusClaimedWithPermit",
      "type": "event"
    },
    {
      "anonymous": false,
      "inputs": [
        {
          "indexed": true,
          "internalType": "address",
          "name": "previousOwner",
          "type": "address"
        },
        {
          "indexed": true,
          "internalType": "address",
          "name": "newOwner",
          "type": "address"
        }
      ],
      "name": "OwnershipTransferred",
      "type": "event"
    },
    {
      "inputs": [],
      "name": "USDC_AMOUNT",
      "outputs": [
        {
          "internalType": "uint256",
          "name": "",
          "type": "uint256"
        }
      ],
      "stateMutability": "view",
      "type": "function"
    },
    {
      "inputs": [
        {
          "internalType": "address",
          "name": "",
          "type": "address"
        }
      ],
      "name": "basicClaimed",
      "outputs": [
        {
          "internalType": "bool",
          "name": "",
          "type": "bool"
        }
      ],
      "stateMutability": "view",
      "type": "function"
    },
    {
      "inputs": [],
      "name": "claimBonusForVerifiedUser",
      "outputs": [],
      "stateMutability": "nonpayable",
      "type": "function"
    },
    {
      "inputs": [
        {
          "internalType": "uint256",
          "name": "nonce",
          "type": "uint256"
        },
        {
          "internalType": "uint256",
          "name": "deadline",
          "type": "uint256"
        },
        {
          "internalType": "bytes",
          "name": "signature",
          "type": "bytes"
        }
      ],
      "name": "claimBonusForVerifiedUserPermit",
      "outputs": [],
      "stateMutability": "nonpayable",
      "type": "function"
    },
    {
      "inputs": [],
      "name": "owner",
      "outputs": [
        {
          "internalType": "address",
          "name": "",
          "type": "address"
        }
      ],
      "stateMutability": "view",
      "type": "function"
    },
    {
      "inputs": [],
      "name": "permit2",
      "outputs": [
        {
          "internalType": "address",
          "name": "",
          "type": "address"
        }
      ],
      "stateMutability": "view",
      "type": "function"
    },
    {
      "inputs": [
        {
          "internalType": "address",
          "name": "",
          "type": "address"
        }
      ],
      "name": "permitClaimed",
      "outputs": [
        {
          "internalType": "bool",
          "name": "",
          "type": "bool"
        }
      ],
      "stateMutability": "view",
      "type": "function"
    },
    {
      "inputs": [],
      "name": "renounceOwnership",
      "outputs": [],
      "stateMutability": "nonpayable",
      "type": "function"
    },
    {
      "inputs": [
        {
          "internalType": "address",
          "name": "newOwner",
          "type": "address"
        }
      ],
      "name": "transferOwnership",
      "outputs": [],
      "stateMutability": "nonpayable",
      "type": "function"
    },
    {
      "inputs": [],
      "name": "usdcToken",
      "outputs": [
        {
          "internalType": "address",
          "name": "",
          "type": "address"
        }
      ],
      "stateMutability": "view",
      "type": "function"
    }
  ],
  "bytecode": "0x60c060405234801561001057600080fd5b50604051610f85380380610f8583398181016040528101906100329190610318565b80600073ffffffffffffffffffffffffffffffffffffffff168173ffffffffffffffffffffffffffffffffffffffff16036100a55760006040517f1e4fbdf700000000000000000000000000000000000000000000000000000000815260040161009c919061037a565b60405180910390fd5b6100b4816101f160201b60201c565b50600073ffffffffffffffffffffffffffffffffffffffff168373ffffffffffffffffffffffffffffffffffffffff160361011b576040517f3ec08db000000000000000000000000000000000000000000000000000000000815260040160405180910390fd5b600073ffffffffffffffffffffffffffffffffffffffff168273ffffffffffffffffffffffffffffffffffffffff1603610181576040517f59106c8900000000000000000000000000000000000000000000000000000000815260040160405180910390fd5b8273ffffffffffffffffffffffffffffffffffffffff1660808173ffffffffffffffffffffffffffffffffffffffff16815250508173ffffffffffffffffffffffffffffffffffffffff1660a08173ffffffffffffffffffffffffffffffffffffffff1681525050505050610395565b60008060009054906101000a900473ffffffffffffffffffffffffffffffffffffffff169050816000806101000a81548173ffffffffffffffffffffffffffffffffffffffff021916908373ffffffffffffffffffffffffffffffffffffffff1602179055508173ffffffffffffffffffffffffffffffffffffffff168173ffffffffffffffffffffffffffffffffffffffff167f8be0079c531659141344cd1fd0a4f28419497f9722a3daafe3b4186f6b6457e060405160405180910390a35050565b600080fd5b600073ffffffffffffffffffffffffffffffffffffffff82169050919050565b60006102e5826102ba565b9050919050565b6102f5816102da565b811461030057600080fd5b50565b600081519050610312816102ec565b92915050565b600080600060608486031215610331576103306102b5565b5b600061033f86828701610303565b935050602061035086828701610303565b925050604061036186828701610303565b9150509250925092565b610374816102da565b82525050565b600060208201905061038f600083018461036b565b92915050565b60805160a051610bbd6103c8600039600081816101f301526103370152600081816101cf01526102b30152610bbd6000f3fe608060405234801561001057600080fd5b506004361061009e5760003560e01c80635af07891116100665780635af0789114610149578063715018a6146101535780638da5cb5b1461015d578063e98948351461017b578063f2fde38b146101ab5761009e565b80631153ad74146100a357806311eac855146100c157806312261ee7146100df57806331c7930b146100fd57806347eed7c314610119575b600080fd5b6100ab6101c7565b6040516100b89190610807565b60405180910390f35b6100c96101cd565b6040516100d69190610863565b60405180910390f35b6100e76101f1565b6040516100f49190610863565b60405180910390f35b61011760048036038101906101129190610919565b610215565b005b610133600480360381019061012e91906109b9565b610478565b6040516101409190610a01565b60405180910390f35b610151610498565b005b61015b6105b8565b005b6101656105cc565b6040516101729190610863565b60405180910390f35b610195600480360381019061019091906109b9565b6105f5565b6040516101a29190610a01565b60405180910390f35b6101c560048036038101906101c091906109b9565b610615565b005b61271081565b7f000000000000000000000000000000000000000000000000000000000000000081565b7f000000000000000000000000000000000000000000000000000000000000000081565b600260003373ffffffffffffffffffffffffffffffffffffffff1673ffffffffffffffffffffffffffffffffffffffff16815260200190815260200160002060009054906101000a900460ff1615610299576040517f7612d17100000000000000000000000000000000000000000000000000000000815260040160405180910390fd5b6000604051806060016040528060405180604001604052807f000000000000000000000000000000000000000000000000000000000000000073ffffffffffffffffffffffffffffffffffffffff1681526020016127108152508152602001868152602001858152509050600060405180604001604052803073ffffffffffffffffffffffffffffffffffffffff16815260200161271081525090507f000000000000000000000000000000000000000000000000000000000000000073ffffffffffffffffffffffffffffffffffffffff166330f28b7a83833388886040518663ffffffff1660e01b8152600401610396959493929190610b38565b600060405180830381600087803b1580156103b057600080fd5b505af11580156103c4573d6000803e3d6000fd5b505050506001600260003373ffffffffffffffffffffffffffffffffffffffff1673ffffffffffffffffffffffffffffffffffffffff16815260200190815260200160002060006101000a81548160ff0219169083151502179055503373ffffffffffffffffffffffffffffffffffffffff167fc6a53c36fbccb8e52da98449fc0f216a82e11e700ba86270f7e53b847984caf56127106040516104689190610807565b60405180910390a2505050505050565b60026020528060005260406000206000915054906101000a900460ff1681565b600160003373ffffffffffffffffffffffffffffffffffffffff1673ffffffffffffffffffffffffffffffffffffffff16815260200190815260200160002060009054906101000a900460ff161561051c576040517fd937c6ab00000000000000000000000000000000000000000000000000000000815260040160405180910390fd5b60018060003373ffffffffffffffffffffffffffffffffffffffff1673ffffffffffffffffffffffffffffffffffffffff16815260200190815260200160002060006101000a81548160ff0219169083151502179055503373ffffffffffffffffffffffffffffffffffffffff167fad41e53a30eba4fb86694cc182526cd5021c459bc64f86d49676af7fae0f387960405160405180910390a2565b6105c061069b565b6105ca6000610722565b565b60008060009054906101000a900473ffffffffffffffffffffffffffffffffffffffff16905090565b60016020528060005260406000206000915054906101000a900460ff1681565b61061d61069b565b600073ffffffffffffffffffffffffffffffffffffffff168173ffffffffffffffffffffffffffffffffffffffff160361068f5760006040517f1e4fbdf70000000000000000000000000000000000000000000000000000000081526004016106869190610863565b60405180910390fd5b61069881610722565b50565b6106a36107e6565b73ffffffffffffffffffffffffffffffffffffffff166106c16105cc565b73ffffffffffffffffffffffffffffffffffffffff1614610720576106e46107e6565b6040517f118cdaa70000000000000000000000000000000000000000000000000000000081526004016107179190610863565b60405180910390fd5b565b60008060009054906101000a900473ffffffffffffffffffffffffffffffffffffffff169050816000806101000a81548173ffffffffffffffffffffffffffffffffffffffff021916908373ffffffffffffffffffffffffffffffffffffffff1602179055508173ffffffffffffffffffffffffffffffffffffffff168173ffffffffffffffffffffffffffffffffffffffff167f8be0079c531659141344cd1fd0a4f28419497f9722a3daafe3b4186f6b6457e060405160405180910390a35050565b600033905090565b6000819050919050565b610801816107ee565b82525050565b600060208201905061081c60008301846107f8565b92915050565b600073ffffffffffffffffffffffffffffffffffffffff82169050919050565b600061084d82610822565b9050919050565b61085d81610842565b82525050565b60006020820190506108786000830184610854565b92915050565b600080fd5b600080fd5b610891816107ee565b811461089c57600080fd5b50565b6000813590506108ae81610888565b92915050565b600080fd5b600080fd5b600080fd5b60008083601f8401126108d9576108d86108b4565b5b8235905067ffffffffffffffff8111156108f6576108f56108b9565b5b602083019150836001820283011115610912576109116108be565b5b9250929050565b600080600080606085870312156109335761093261087e565b5b60006109418782880161089f565b94505060206109528782880161089f565b935050604085013567ffffffffffffffff81111561097357610972610883565b5b61097f878288016108c3565b925092505092959194509250565b61099681610842565b81146109a157600080fd5b50565b6000813590506109b38161098d565b92915050565b6000602082840312156109cf576109ce61087e565b5b60006109dd848285016109a4565b91505092915050565b60008115159050919050565b6109fb816109e6565b82525050565b6000602082019050610a1660008301846109f2565b92915050565b610a2581610842565b82525050565b610a34816107ee565b82525050565b604082016000820151610a506000850182610a1c565b506020820151610a636020850182610a2b565b50505050565b608082016000820151610a7f6000850182610a3a565b506020820151610a926040850182610a2b565b506040820151610aa56060850182610a2b565b50505050565b604082016000820151610ac16000850182610a1c565b506020820151610ad46020850182610a2b565b50505050565b600082825260208201905092915050565b82818337600083830152505050565b6000601f19601f8301169050919050565b6000610b178385610ada565b9350610b24838584610aeb565b610b2d83610afa565b840190509392505050565b600061010082019050610b4e6000830188610a69565b610b5b6080830187610aab565b610b6860c0830186610854565b81810360e0830152610b7b818486610b0b565b9050969550505050505056fea26469706673582212202f2de060788b0654ae842c6e752cc11da719c94ff05a007e066c40a997ea888f64736f6c634300081b0033",
  "linkReferences": {},
  "deployedLinkReferences": {}
}